:100000001EC02DC02CC02BC02AC029C028C027C0AC
:1000100026C025C024C023C022C021C020C01FC0CC
:100020001EC01DC01CC01BC01AC05FC018C017C0B6
:1000300016C015C077123D3E5A6E6F327F7A11247A
:100040001FBECFEFD2E0DEBFCDBF21E0A0E0B1E028
:1000500001C01D92A938B207E1F767D0A2C2D0CF84
:10006000CF93DF9300D0CDB7DEB7A1E0B1E090E051
:10007000ED91EA30C8F4F0E0EC5CFF4FE4918913B5
:1000800001C0E068911112C02898EBB91A82198258
:1000900029813A81263331057CF429813A812F5F09
:1000A0003F4F3A832983F4CFE1E1E9CF913011F456
:1000B0002998EBCF2A98E9CF1A82198229813A81AF
:1000C000263331053CF429813A812F5F3F4F3A8333
:1000D0002983F4CF289A299A2A9A9F5F933041F670
:1000E0000F900F90DF91CF9108952F932FB72F93FB
:1000F0003F938F93EF93FF93809184012091780039
:1001000030917900E82FF0E0EE0FFF1FEC5FFE4F1B
:10011000318320838F5F80938401FF91EF918F91D2
:100120003F912F912FBF2F9118958FEF8AB91BB850
:10013000209A219A229A289A299A2A9A80917A00BA
:10014000816080937A0080917A00826080937A0047
:1001500080917A008B7F80937A0080917C0080640C
:1001600080937C0080917A00886080937A008091EF
:100170007A00806880937A0080917A00806480930E
:100180007A007894D0E0C0E023E0C22ED12CC09356
:100190000101C0930201C0930301CE01B60168D0F2
:1001A000F82E0EE110E08F2D5BDF01501109D9F719
:1001B0002196CA30D10559F791E4F92E04E610E0F2
:1001C000CAE0D0E080917A00806480937A008091C8
:1001D0008401803409F03FC01092840180910401B1
:1001E00090910501F89EB001F99E700D1124709355
:1001F000860160938501F092000186E0769567950F
:100200008A95E1F790E080E0DBD020E030E040E646
:1002100050E442D020E030E040E251E45FD1A4D08D
:1002200066397105D8F47093880160938701209135
:10023000870130918801C901B8011AD0609301018A
:10024000C901BE0115D0282FCB01BE0111D080936A
:1002500002012093030181E003DFB4CF90E080E04E
:10026000AFD026EF38E24CE75FE338D17DD0DBCF6B
:10027000AA1BBB1B51E107C0AA1FBB1FA617B707CC
:1002800010F0A61BB70B881F991F5A95A9F78095E8
:100290009095BC01CD0108950CD0E6C0DED040F0B1
:1002A000D5D030F021F45F3F19F0C7C0511110C113
:1002B000CAC0EBD098F39923C9F35523B1F3951B2A
:1002C000550BBB27AA2762177307840738F09F5F77
:1002D0005F4F220F331F441FAA1FA9F333D00E2EE6
:1002E0003AF0E0E830D091505040E695001CCAF753
:1002F00029D0FE2F27D0660F771F881FBB1F261718
:1003000037074807AB07B0E809F0BB0B802DBF01EA
:10031000FF2793585F4F2AF09E3F510568F08DC02C
:10032000D7C05F3FECF3983EDCF3869577956795F1
:10033000B795F7959F5FC9F7880F911D969587959B
:1003400097F90895E1E0660F771F881FBB1F6217BA
:1003500073078407BA0720F0621B730B840BBA0B78
:10036000EE1F88F7E095089598D088F09F5790F099
:10037000B92F9927B751A0F0D1F0660F771F881FCA
:10038000991F1AF0BA95C9F712C0B13081F09FD009
:10039000B1E008959CC0672F782F8827B85F39F0A7
:1003A000B93FCCF3869577956795B395D9F73EF429
:1003B00090958095709561957F4F8F4F9F4F0895D1
:1003C000E89409C097FB3EF49095809570956195EF
:1003D0007F4F8F4F9F4F9923A9F0F92F96E9BB27A5
:1003E0009395F695879577956795B795F111F8CF21
:1003F000FAF4BB0F11F460FF1BC06F5F7F4F8F4F8C
:100400009F4F16C0882311F096E911C0772321F081
:100410009EE8872F762F05C0662371F096E8862F19
:1004200070E060E02AF09A95660F771F881FDAF770
:10043000880F9695879597F9089597F99F6780E8B3
:1004400070E060E008959FEF80EC089500240A9426
:100450001616170618060906089500240A9412169F
:100460001306140605060895092E0394000C11F4D2
:10047000882352F0BB0F40F4BF2B11F460FF04C07F
:100480006F5F7F4F8F4F9F4F089557FD9058440FD8
:10049000551F59F05F3F71F04795880F97FB991FE3
:1004A00061F09F3F79F087950895121613061406A0
:1004B000551FF2CF4695F1DF08C01616170618062D
:1004C000991FF1CF86957105610508940895E89408
:1004D000BB2766277727CB0197F908950BD0C4CFA8
:1004E000B5DF28F0BADF18F0952309F0A6CFABCF1F
:1004F0001124EECFCADFA0F3959FD1F3950F50E002
:10050000551F629FF001729FBB27F00DB11D639FC5
:10051000AA27F00DB11DAA1F649F6627B00DA11D6B
:10052000661F829F2227B00DA11D621F739FB00D11
:10053000A11D621F839FA00D611D221F749F332781
:10054000A00D611D231F849F600D211D822F762F1A
:100550006A2F11249F5750408AF0E1F088234AF017
:10056000EE0FFF1FBB1F661F771F881F9150504063
:10057000A9F79E3F510570F060CFAACF5F3FECF323
:10058000983EDCF3869577956795B795F795E7954F
:100590009F5FC1F7FE2B880F911D9695879597F960
:0605A0000895F894FFCF5E
:00000001FF
